{
  "_format": "hh-sol-artifact-1",
  "contractName": "ftr",
  "sourceName": "contracts/ftr.sol",
  "abi": [
    {
      "inputs": [
        {
          "internalType": "address",
          "name": "initialOwner",
          "type": "address"
        }
      ],
      "stateMutability": "nonpayable",
      "type": "constructor"
    },
    {
      "inputs": [
        {
          "internalType": "address",
          "name": "sender",
          "type": "address"
        },
        {
          "internalType": "uint256",
          "name": "balance",
          "type": "uint256"
        },
        {
          "internalType": "uint256",
          "name": "needed",
          "type": "uint256"
        },
        {
          "internalType": "uint256",
          "name": "tokenId",
          "type": "uint256"
        }
      ],
      "name": "ERC1155InsufficientBalance",
      "type": "error"
    },
    {
      "inputs": [
        {
          "internalType": "address",
          "name": "approver",
          "type": "address"
        }
      ],
      "name": "ERC1155InvalidApprover",
      "type": "error"
    },
    {
      "inputs": [
        {
          "internalType": "uint256",
          "name": "idsLength",
          "type": "uint256"
        },
        {
          "internalType": "uint256",
          "name": "valuesLength",
          "type": "uint256"
        }
      ],
      "name": "ERC1155InvalidArrayLength",
      "type": "error"
    },
    {
      "inputs": [
        {
          "internalType": "address",
          "name": "operator",
          "type": "address"
        }
      ],
      "name": "ERC1155InvalidOperator",
      "type": "error"
    },
    {
      "inputs": [
        {
          "internalType": "address",
          "name": "receiver",
          "type": "address"
        }
      ],
      "name": "ERC1155InvalidReceiver",
      "type": "error"
    },
    {
      "inputs": [
        {
          "internalType": "address",
          "name": "sender",
          "type": "address"
        }
      ],
      "name": "ERC1155InvalidSender",
      "type": "error"
    },
    {
      "inputs": [
        {
          "internalType": "address",
          "name": "operator",
          "type": "address"
        },
        {
          "internalType": "address",
          "name": "owner",
          "type": "address"
        }
      ],
      "name": "ERC1155MissingApprovalForAll",
      "type": "error"
    },
    {
      "inputs": [],
      "name": "EnforcedPause",
      "type": "error"
    },
    {
      "inputs": [],
      "name": "ExpectedPause",
      "type": "error"
    },
    {
      "inputs": [
        {
          "internalType": "address",
          "name": "owner",
          "type": "address"
        }
      ],
      "name": "OwnableInvalidOwner",
      "type": "error"
    },
    {
      "inputs": [
        {
          "internalType": "address",
          "name": "account",
          "type": "address"
        }
      ],
      "name": "OwnableUnauthorizedAccount",
      "type": "error"
    },
    {
      "anonymous": false,
      "inputs": [
        {
          "indexed": true,
          "internalType": "address",
          "name": "account",
          "type": "address"
        },
        {
          "indexed": true,
          "internalType": "address",
          "name": "operator",
          "type": "address"
        },
        {
          "indexed": false,
          "internalType": "bool",
          "name": "approved",
          "type": "bool"
        }
      ],
      "name": "ApprovalForAll",
      "type": "event"
    },
    {
      "anonymous": false,
      "inputs": [
        {
          "indexed": true,
          "internalType": "address",
          "name": "previousOwner",
          "type": "address"
        },
        {
          "indexed": true,
          "internalType": "address",
          "name": "newOwner",
          "type": "address"
        }
      ],
      "name": "OwnershipTransferred",
      "type": "event"
    },
    {
      "anonymous": false,
      "inputs": [
        {
          "indexed": false,
          "internalType": "address",
          "name": "account",
          "type": "address"
        }
      ],
      "name": "Paused",
      "type": "event"
    },
    {
      "anonymous": false,
      "inputs": [
        {
          "indexed": true,
          "internalType": "address",
          "name": "operator",
          "type": "address"
        },
        {
          "indexed": true,
          "internalType": "address",
          "name": "from",
          "type": "address"
        },
        {
          "indexed": true,
          "internalType": "address",
          "name": "to",
          "type": "address"
        },
        {
          "indexed": false,
          "internalType": "uint256[]",
          "name": "ids",
          "type": "uint256[]"
        },
        {
          "indexed": false,
          "internalType": "uint256[]",
          "name": "values",
          "type": "uint256[]"
        }
      ],
      "name": "TransferBatch",
      "type": "event"
    },
    {
      "anonymous": false,
      "inputs": [
        {
          "indexed": true,
          "internalType": "address",
          "name": "operator",
          "type": "address"
        },
        {
          "indexed": true,
          "internalType": "address",
          "name": "from",
          "type": "address"
        },
        {
          "indexed": true,
          "internalType": "address",
          "name": "to",
          "type": "address"
        },
        {
          "indexed": false,
          "internalType": "uint256",
          "name": "id",
          "type": "uint256"
        },
        {
          "indexed": false,
          "internalType": "uint256",
          "name": "value",
          "type": "uint256"
        }
      ],
      "name": "TransferSingle",
      "type": "event"
    },
    {
      "anonymous": false,
      "inputs": [
        {
          "indexed": false,
          "internalType": "string",
          "name": "value",
          "type": "string"
        },
        {
          "indexed": true,
          "internalType": "uint256",
          "name": "id",
          "type": "uint256"
        }
      ],
      "name": "URI",
      "type": "event"
    },
    {
      "anonymous": false,
      "inputs": [
        {
          "indexed": false,
          "internalType": "address",
          "name": "account",
          "type": "address"
        }
      ],
      "name": "Unpaused",
      "type": "event"
    },
    {
      "anonymous": false,
      "inputs": [
        {
          "indexed": false,
          "internalType": "uint256",
          "name": "FID",
          "type": "uint256"
        },
        {
          "indexed": false,
          "internalType": "address",
          "name": "buyer",
          "type": "address"
        }
      ],
      "name": "ftrPurchased",
      "type": "event"
    },
    {
      "inputs": [
        {
          "internalType": "address",
          "name": "",
          "type": "address"
        }
      ],
      "name": "addressPurchasedftr",
      "outputs": [
        {
          "internalType": "bool",
          "name": "",
          "type": "bool"
        }
      ],
      "stateMutability": "view",
      "type": "function"
    },
    {
      "inputs": [
        {
          "internalType": "address",
          "name": "account",
          "type": "address"
        },
        {
          "internalType": "uint256",
          "name": "id",
          "type": "uint256"
        }
      ],
      "name": "balanceOf",
      "outputs": [
        {
          "internalType": "uint256",
          "name": "",
          "type": "uint256"
        }
      ],
      "stateMutability": "view",
      "type": "function"
    },
    {
      "inputs": [
        {
          "internalType": "address[]",
          "name": "accounts",
          "type": "address[]"
        },
        {
          "internalType": "uint256[]",
          "name": "ids",
          "type": "uint256[]"
        }
      ],
      "name": "balanceOfBatch",
      "outputs": [
        {
          "internalType": "uint256[]",
          "name": "",
          "type": "uint256[]"
        }
      ],
      "stateMutability": "view",
      "type": "function"
    },
    {
      "inputs": [
        {
          "internalType": "address",
          "name": "account",
          "type": "address"
        },
        {
          "internalType": "uint256",
          "name": "id",
          "type": "uint256"
        },
        {
          "internalType": "uint256",
          "name": "value",
          "type": "uint256"
        }
      ],
      "name": "burn",
      "outputs": [],
      "stateMutability": "nonpayable",
      "type": "function"
    },
    {
      "inputs": [
        {
          "internalType": "address",
          "name": "account",
          "type": "address"
        },
        {
          "internalType": "uint256[]",
          "name": "ids",
          "type": "uint256[]"
        },
        {
          "internalType": "uint256[]",
          "name": "values",
          "type": "uint256[]"
        }
      ],
      "name": "burnBatch",
      "outputs": [],
      "stateMutability": "nonpayable",
      "type": "function"
    },
    {
      "inputs": [
        {
          "internalType": "uint256",
          "name": "FID",
          "type": "uint256"
        }
      ],
      "name": "buyftr",
      "outputs": [],
      "stateMutability": "payable",
      "type": "function"
    },
    {
      "inputs": [
        {
          "internalType": "address",
          "name": "account",
          "type": "address"
        },
        {
          "internalType": "address",
          "name": "operator",
          "type": "address"
        }
      ],
      "name": "isApprovedForAll",
      "outputs": [
        {
          "internalType": "bool",
          "name": "",
          "type": "bool"
        }
      ],
      "stateMutability": "view",
      "type": "function"
    },
    {
      "inputs": [
        {
          "internalType": "address",
          "name": "account",
          "type": "address"
        }
      ],
      "name": "mint",
      "outputs": [],
      "stateMutability": "nonpayable",
      "type": "function"
    },
    {
      "inputs": [
        {
          "internalType": "address",
          "name": "to",
          "type": "address"
        },
        {
          "internalType": "uint256[]",
          "name": "ids",
          "type": "uint256[]"
        },
        {
          "internalType": "uint256[]",
          "name": "amounts",
          "type": "uint256[]"
        },
        {
          "internalType": "bytes",
          "name": "data",
          "type": "bytes"
        }
      ],
      "name": "mintBatch",
      "outputs": [],
      "stateMutability": "nonpayable",
      "type": "function"
    },
    {
      "inputs": [],
      "name": "owner",
      "outputs": [
        {
          "internalType": "address",
          "name": "",
          "type": "address"
        }
      ],
      "stateMutability": "view",
      "type": "function"
    },
    {
      "inputs": [],
      "name": "pause",
      "outputs": [],
      "stateMutability": "nonpayable",
      "type": "function"
    },
    {
      "inputs": [],
      "name": "paused",
      "outputs": [
        {
          "internalType": "bool",
          "name": "",
          "type": "bool"
        }
      ],
      "stateMutability": "view",
      "type": "function"
    },
    {
      "inputs": [],
      "name": "renounceOwnership",
      "outputs": [],
      "stateMutability": "nonpayable",
      "type": "function"
    },
    {
      "inputs": [
        {
          "internalType": "address",
          "name": "from",
          "type": "address"
        },
        {
          "internalType": "address",
          "name": "to",
          "type": "address"
        },
        {
          "internalType": "uint256[]",
          "name": "ids",
          "type": "uint256[]"
        },
        {
          "internalType": "uint256[]",
          "name": "amounts",
          "type": "uint256[]"
        },
        {
          "internalType": "bytes",
          "name": "data",
          "type": "bytes"
        }
      ],
      "name": "safeBatchTransferFrom",
      "outputs": [],
      "stateMutability": "nonpayable",
      "type": "function"
    },
    {
      "inputs": [
        {
          "internalType": "address",
          "name": "from",
          "type": "address"
        },
        {
          "internalType": "address",
          "name": "to",
          "type": "address"
        },
        {
          "internalType": "uint256",
          "name": "id",
          "type": "uint256"
        },
        {
          "internalType": "uint256",
          "name": "amount",
          "type": "uint256"
        },
        {
          "internalType": "bytes",
          "name": "data",
          "type": "bytes"
        }
      ],
      "name": "safeTransferFrom",
      "outputs": [],
      "stateMutability": "nonpayable",
      "type": "function"
    },
    {
      "inputs": [
        {
          "internalType": "address",
          "name": "operator",
          "type": "address"
        },
        {
          "internalType": "bool",
          "name": "approved",
          "type": "bool"
        }
      ],
      "name": "setApprovalForAll",
      "outputs": [],
      "stateMutability": "nonpayable",
      "type": "function"
    },
    {
      "inputs": [
        {
          "internalType": "bytes4",
          "name": "interfaceId",
          "type": "bytes4"
        }
      ],
      "name": "supportsInterface",
      "outputs": [
        {
          "internalType": "bool",
          "name": "",
          "type": "bool"
        }
      ],
      "stateMutability": "view",
      "type": "function"
    },
    {
      "inputs": [],
      "name": "totalSupply",
      "outputs": [
        {
          "internalType": "uint256",
          "name": "",
          "type": "uint256"
        }
      ],
      "stateMutability": "view",
      "type": "function"
    },
    {
      "inputs": [
        {
          "internalType": "address",
          "name": "newOwner",
          "type": "address"
        }
      ],
      "name": "transferOwnership",
      "outputs": [],
      "stateMutability": "nonpayable",
      "type": "function"
    },
    {
      "inputs": [],
      "name": "unpause",
      "outputs": [],
      "stateMutability": "nonpayable",
      "type": "function"
    },
    {
      "inputs": [
        {
          "internalType": "uint256",
          "name": "",
          "type": "uint256"
        }
      ],
      "name": "uri",
      "outputs": [
        {
          "internalType": "string",
          "name": "",
          "type": "string"
        }
      ],
      "stateMutability": "view",
      "type": "function"
    },
    {
      "inputs": [],
      "name": "withdraw",
      "outputs": [],
      "stateMutability": "nonpayable",
      "type": "function"
    }
  ],
  "bytecode": "0x608060405260196004553480156200001657600080fd5b50604051620036ea380380620036ea83398181016040528101906200003c919062000257565b80604051806060016040528060358152602001620036b56035913962000068816200011260201b60201c565b506000600360006101000a81548160ff021916908315150217905550600073ffffffffffffffffffffffffffffffffffffffff168173ffffffffffffffffffffffffffffffffffffffff1603620000f95760006040517f1e4fbdf7000000000000000000000000000000000000000000000000000000008152600401620000f091906200029a565b60405180910390fd5b6200010a816200012760201b60201c565b505062000618565b806002908162000123919062000531565b5050565b6000600360019054906101000a900473ffffffffffffffffffffffffffffffffffffffff16905081600360016101000a81548173ffffffffffffffffffffffffffffffffffffffff021916908373ffffffffffffffffffffffffffffffffffffffff1602179055508173ffffffffffffffffffffffffffffffffffffffff168173ffffffffffffffffffffffffffffffffffffffff167f8be0079c531659141344cd1fd0a4f28419497f9722a3daafe3b4186f6b6457e060405160405180910390a35050565b600080fd5b600073ffffffffffffffffffffffffffffffffffffffff82169050919050565b60006200021f82620001f2565b9050919050565b620002318162000212565b81146200023d57600080fd5b50565b600081519050620002518162000226565b92915050565b60006020828403121562000270576200026f620001ed565b5b6000620002808482850162000240565b91505092915050565b620002948162000212565b82525050565b6000602082019050620002b1600083018462000289565b92915050565b600081519050919050565b7f4e487b7100000000000000000000000000000000000000000000000000000000600052604160045260246000fd5b7f4e487b7100000000000000000000000000000000000000000000000000000000600052602260045260246000fd5b600060028204905060018216806200033957607f821691505b6020821081036200034f576200034e620002f1565b5b50919050565b60008190508160005260206000209050919050565b60006020601f8301049050919050565b600082821b905092915050565b600060088302620003b97fffffffffffffffffffffffffffffffffffffffffffffffffffffffffffffffff826200037a565b620003c586836200037a565b95508019841693508086168417925050509392505050565b6000819050919050565b6000819050919050565b6000620004126200040c6200040684620003dd565b620003e7565b620003dd565b9050919050565b6000819050919050565b6200042e83620003f1565b620004466200043d8262000419565b84845462000387565b825550505050565b600090565b6200045d6200044e565b6200046a81848462000423565b505050565b5b8181101562000492576200048660008262000453565b60018101905062000470565b5050565b601f821115620004e157620004ab8162000355565b620004b6846200036a565b81016020851015620004c6578190505b620004de620004d5856200036a565b8301826200046f565b50505b505050565b600082821c905092915050565b60006200050660001984600802620004e6565b1980831691505092915050565b6000620005218383620004f3565b9150826002028217905092915050565b6200053c82620002b7565b67ffffffffffffffff811115620005585762000557620002c2565b5b62000564825462000320565b6200057182828562000496565b600060209050601f831160018114620005a9576000841562000594578287015190505b620005a0858262000513565b86555062000610565b601f198416620005b98662000355565b60005b82811015620005e357848901518255600182019150602085019450602081019050620005bc565b86831015620006035784890151620005ff601f891682620004f3565b8355505b6001600288020188555050505b505050505050565b61308d80620006286000396000f3fe6080604052600436106101345760003560e01c80636a627842116100ab5780638da5cb5b1161006f5780638da5cb5b146103dc578063a22cb46514610407578063e985e9c514610430578063f242432a1461046d578063f2fde38b14610496578063f5298aca146104bf57610134565b80636a627842146103405780636b20c45414610369578063715018a6146103925780638456cb59146103a9578063883f032f146103c057610134565b80631f7fdffa116100fd5780631f7fdffa146102585780632eb2c2d6146102815780633ccfd60b146102aa5780633f4ba83a146102c15780634e1273f4146102d85780635c975abb1461031557610134565b8062fdd58e1461013957806301ffc9a714610176578063053be0b7146101b35780630e89341c146101f057806318160ddd1461022d575b600080fd5b34801561014557600080fd5b50610160600480360381019061015b91906120f6565b6104e8565b60405161016d9190612145565b60405180910390f35b34801561018257600080fd5b5061019d600480360381019061019891906121b8565b610542565b6040516101aa9190612200565b60405180910390f35b3480156101bf57600080fd5b506101da60048036038101906101d5919061221b565b610624565b6040516101e79190612200565b60405180910390f35b3480156101fc57600080fd5b5061021760048036038101906102129190612248565b610644565b6040516102249190612305565b60405180910390f35b34801561023957600080fd5b506102426106d8565b60405161024f9190612145565b60405180910390f35b34801561026457600080fd5b5061027f600480360381019061027a9190612524565b6106de565b005b34801561028d57600080fd5b506102a860048036038101906102a391906125df565b6106f8565b005b3480156102b657600080fd5b506102bf610714565b005b3480156102cd57600080fd5b506102d6610772565b005b3480156102e457600080fd5b506102ff60048036038101906102fa9190612771565b610784565b60405161030c91906128a7565b60405180910390f35b34801561032157600080fd5b5061032a610893565b6040516103379190612200565b60405180910390f35b34801561034c57600080fd5b506103676004803603810190610362919061221b565b6108aa565b005b34801561037557600080fd5b50610390600480360381019061038b91906128c9565b610910565b005b34801561039e57600080fd5b506103a76109bc565b005b3480156103b557600080fd5b506103be6109d0565b005b6103da60048036038101906103d59190612248565b6109e2565b005b3480156103e857600080fd5b506103f1610bbd565b6040516103fe9190612963565b60405180910390f35b34801561041357600080fd5b5061042e600480360381019061042991906129aa565b610be7565b005b34801561043c57600080fd5b50610457600480360381019061045291906129ea565b610bfd565b6040516104649190612200565b60405180910390f35b34801561047957600080fd5b50610494600480360381019061048f9190612a2a565b610c91565b005b3480156104a257600080fd5b506104bd60048036038101906104b8919061221b565b610cad565b005b3480156104cb57600080fd5b506104e660048036038101906104e19190612ac1565b610d33565b005b600080600083815260200190815260200160002060008473ffffffffffffffffffffffffffffffffffffffff1673ffffffffffffffffffffffffffffffffffffffff16815260200190815260200160002054905092915050565b60007fd9b67a26000000000000000000000000000000000000000000000000000000007bffffffffffffffffffffffffffffffffffffffffffffffffffffffff1916827bffffffffffffffffffffffffffffffffffffffffffffffffffffffff1916148061060d57507f0e89341c000000000000000000000000000000000000000000000000000000007bffffffffffffffffffffffffffffffffffffffffffffffffffffffff1916827bffffffffffffffffffffffffffffffffffffffffffffffffffffffff1916145b8061061d575061061c82610ddf565b5b9050919050565b60056020528060005260406000206000915054906101000a900460ff1681565b60606002805461065390612b43565b80601f016020809104026020016040519081016040528092919081815260200182805461067f90612b43565b80156106cc5780601f106106a1576101008083540402835291602001916106cc565b820191906000526020600020905b8154815290600101906020018083116106af57829003601f168201915b50505050509050919050565b60045481565b6106e6610e49565b6106f284848484610ed0565b50505050565b610700610e49565b61070d8585858585610f56565b5050505050565b61071c610e49565b6000479050610729610bbd565b73ffffffffffffffffffffffffffffffffffffffff166108fc829081150290604051600060405180830381858888f1935050505015801561076e573d6000803e3d6000fd5b5050565b61077a610e49565b610782610ffe565b565b606081518351146107d057815183516040517f5b0599910000000000000000000000000000000000000000000000000000000081526004016107c7929190612b74565b60405180910390fd5b6000835167ffffffffffffffff8111156107ed576107ec61232c565b5b60405190808252806020026020018201604052801561081b5781602001602082028036833780820191505090505b50905060005b845181101561088857610858610840828761106190919063ffffffff16565b610853838761107590919063ffffffff16565b6104e8565b82828151811061086b5761086a612b9d565b5b6020026020010181815250508061088190612bfb565b9050610821565b508091505092915050565b6000600360009054906101000a900460ff16905090565b6108b2610e49565b61090d8160006001600067ffffffffffffffff8111156108d5576108d461232c565b5b6040519080825280601f01601f1916602001820160405280156109075781602001600182028036833780820191505090505b50611089565b50565b610918611122565b73ffffffffffffffffffffffffffffffffffffffff168373ffffffffffffffffffffffffffffffffffffffff1614158015610961575061095f8361095a611122565b610bfd565b155b156109ac5761096e611122565b836040517fe237d9220000000000000000000000000000000000000000000000000000000081526004016109a3929190612c43565b60405180910390fd5b6109b783838361112a565b505050565b6109c4610e49565b6109ce60006111be565b565b6109d8610e49565b6109e0611284565b565b600560003373ffffffffffffffffffffffffffffffffffffffff1673ffffffffffffffffffffffffffffffffffffffff16815260200190815260200160002060009054906101000a900460ff1615610a6f576040517f08c379a0000000000000000000000000000000000000000000000000000000008152600401610a6690612cde565b60405180910390fd5b600060045411610ab4576040517f08c379a0000000000000000000000000000000000000000000000000000000008152600401610aab90612d70565b60405180910390fd5b6000610ac13360006104e8565b1115610b11576608e1bc9bf040003414610b10576040517f08c379a0000000000000000000000000000000000000000000000000000000008152600401610b0790612ddc565b60405180910390fd5b5b60046000815480929190610b2490612dfc565b91905055506001600560003373ffffffffffffffffffffffffffffffffffffffff1673ffffffffffffffffffffffffffffffffffffffff16815260200190815260200160002060006101000a81548160ff0219169083151502179055507f02edffdfed204d10223c22d4330f3bc5c934484df34d22ce69f70b58147996288133604051610bb2929190612e25565b60405180910390a150565b6000600360019054906101000a900473ffffffffffffffffffffffffffffffffffffffff16905090565b610bf9610bf2611122565b83836112e7565b5050565b6000600160008473ffffffffffffffffffffffffffffffffffffffff1673ffffffffffffffffffffffffffffffffffffffff16815260200190815260200160002060008373ffffffffffffffffffffffffffffffffffffffff1673ffffffffffffffffffffffffffffffffffffffff16815260200190815260200160002060009054906101000a900460ff16905092915050565b610c99610e49565b610ca68585858585611457565b5050505050565b610cb5610e49565b600073ffffffffffffffffffffffffffffffffffffffff168173ffffffffffffffffffffffffffffffffffffffff1603610d275760006040517f1e4fbdf7000000000000000000000000000000000000000000000000000000008152600401610d1e9190612963565b60405180910390fd5b610d30816111be565b50565b610d3b611122565b73ffffffffffffffffffffffffffffffffffffffff168373ffffffffffffffffffffffffffffffffffffffff1614158015610d845750610d8283610d7d611122565b610bfd565b155b15610dcf57610d91611122565b836040517fe237d922000000000000000000000000000000000000000000000000000000008152600401610dc6929190612c43565b60405180910390fd5b610dda8383836114ff565b505050565b60007f01ffc9a7000000000000000000000000000000000000000000000000000000007bffffffffffffffffffffffffffffffffffffffffffffffffffffffff1916827bffffffffffffffffffffffffffffffffffffffffffffffffffffffff1916149050919050565b610e51611122565b73ffffffffffffffffffffffffffffffffffffffff16610e6f610bbd565b73ffffffffffffffffffffffffffffffffffffffff1614610ece57610e92611122565b6040517f118cdaa7000000000000000000000000000000000000000000000000000000008152600401610ec59190612963565b60405180910390fd5b565b600073ffffffffffffffffffffffffffffffffffffffff168473ffffffffffffffffffffffffffffffffffffffff1603610f425760006040517f57f447ce000000000000000000000000000000000000000000000000000000008152600401610f399190612963565b60405180910390fd5b610f506000858585856115a6565b50505050565b6000610f60611122565b90508073ffffffffffffffffffffffffffffffffffffffff168673ffffffffffffffffffffffffffffffffffffffff1614158015610fa55750610fa38682610bfd565b155b15610fe95780866040517fe237d922000000000000000000000000000000000000000000000000000000008152600401610fe0929190612c43565b60405180910390fd5b610ff68686868686611658565b505050505050565b611006611750565b6000600360006101000a81548160ff0219169083151502179055507f5db9ee0a495bf2e6ff9c91a7834c1ba4fdd244a5e8aa4e537bd38aeae4b073aa61104a611122565b6040516110579190612963565b60405180910390a1565b600060208202602084010151905092915050565b600060208202602084010151905092915050565b600073ffffffffffffffffffffffffffffffffffffffff168473ffffffffffffffffffffffffffffffffffffffff16036110fb5760006040517f57f447ce0000000000000000000000000000000000000000000000000000000081526004016110f29190612963565b60405180910390fd5b6000806111088585611790565b9150915061111a6000878484876115a6565b505050505050565b600033905090565b600073ffffffffffffffffffffffffffffffffffffffff168373ffffffffffffffffffffffffffffffffffffffff160361119c5760006040517f01a835140000000000000000000000000000000000000000000000000000000081526004016111939190612963565b60405180910390fd5b6111b98360008484604051806020016040528060008152506115a6565b505050565b6000600360019054906101000a900473ffffffffffffffffffffffffffffffffffffffff16905081600360016101000a81548173ffffffffffffffffffffffffffffffffffffffff021916908373ffffffffffffffffffffffffffffffffffffffff1602179055508173ffffffffffffffffffffffffffffffffffffffff168173ffffffffffffffffffffffffffffffffffffffff167f8be0079c531659141344cd1fd0a4f28419497f9722a3daafe3b4186f6b6457e060405160405180910390a35050565b61128c6117c0565b6001600360006101000a81548160ff0219169083151502179055507f62e78cea01bee320cd4e420270b5ea74000d11b0c9f74754ebdbfc544b05a2586112d0611122565b6040516112dd9190612963565b60405180910390a1565b600073ffffffffffffffffffffffffffffffffffffffff168273ffffffffffffffffffffffffffffffffffffffff16036113595760006040517fced3e1000000000000000000000000000000000000000000000000000000000081526004016113509190612963565b60405180910390fd5b80600160008573ffffffffffffffffffffffffffffffffffffffff1673ffffffffffffffffffffffffffffffffffffffff16815260200190815260200160002060008473ffffffffffffffffffffffffffffffffffffffff1673ffffffffffffffffffffffffffffffffffffffff16815260200190815260200160002060006101000a81548160ff0219169083151502179055508173ffffffffffffffffffffffffffffffffffffffff168373ffffffffffffffffffffffffffffffffffffffff167f17307eab39ab6107e8899845ad3d59bd9653f200f220920489ca2b5937696c318360405161144a9190612200565b60405180910390a3505050565b6000611461611122565b90508073ffffffffffffffffffffffffffffffffffffffff168673ffffffffffffffffffffffffffffffffffffffff16141580156114a657506114a48682610bfd565b155b156114ea5780866040517fe237d9220000000000000000000000000000000000000000000000000000000081526004016114e1929190612c43565b60405180910390fd5b6114f78686868686611801565b505050505050565b600073ffffffffffffffffffffffffffffffffffffffff168373ffffffffffffffffffffffffffffffffffffffff16036115715760006040517f01a835140000000000000000000000000000000000000000000000000000000081526004016115689190612963565b60405180910390fd5b60008061157e8484611790565b9150915061159f8560008484604051806020016040528060008152506115a6565b5050505050565b6115b28585858561190c565b600073ffffffffffffffffffffffffffffffffffffffff168473ffffffffffffffffffffffffffffffffffffffff16146116515760006115f0611122565b9050600184510361164057600061161160008661107590919063ffffffff16565b9050600061162960008661107590919063ffffffff16565b905061163983898985858961191e565b505061164f565b61164e818787878787611ad2565b5b505b5050505050565b600073ffffffffffffffffffffffffffffffffffffffff168473ffffffffffffffffffffffffffffffffffffffff16036116ca5760006040517f57f447ce0000000000000000000000000000000000000000000000000000000081526004016116c19190612963565b60405180910390fd5b600073ffffffffffffffffffffffffffffffffffffffff168573ffffffffffffffffffffffffffffffffffffffff160361173c5760006040517f01a835140000000000000000000000000000000000000000000000000000000081526004016117339190612963565b60405180910390fd5b61174985858585856115a6565b5050505050565b611758610893565b61178e576040517f8dfc202b00000000000000000000000000000000000000000000000000000000815260040160405180910390fd5b565b60608060405191506001825283602083015260408201905060018152826020820152604081016040529250929050565b6117c8610893565b156117ff576040517fd93c066500000000000000000000000000000000000000000000000000000000815260040160405180910390fd5b565b600073ffffffffffffffffffffffffffffffffffffffff168473ffffffffffffffffffffffffffffffffffffffff16036118735760006040517f57f447ce00000000000000000000000000000000000000000000000000000000815260040161186a9190612963565b60405180910390fd5b600073ffffffffffffffffffffffffffffffffffffffff168573ffffffffffffffffffffffffffffffffffffffff16036118e55760006040517f01a835140000000000000000000000000000000000000000000000000000000081526004016118dc9190612963565b60405180910390fd5b6000806118f28585611790565b9150915061190387878484876115a6565b50505050505050565b61191884848484611c86565b50505050565b60008473ffffffffffffffffffffffffffffffffffffffff163b1115611aca578373ffffffffffffffffffffffffffffffffffffffff1663f23a6e6187878686866040518663ffffffff1660e01b815260040161197f959493929190612ea3565b6020604051808303816000875af19250505080156119bb57506040513d601f19601f820116820180604052508101906119b89190612f12565b60015b611a3f573d80600081146119eb576040519150601f19603f3d011682016040523d82523d6000602084013e6119f0565b606091505b506000815103611a3757846040517f57f447ce000000000000000000000000000000000000000000000000000000008152600401611a2e9190612963565b60405180910390fd5b805181602001fd5b63f23a6e6160e01b7bffffffffffffffffffffffffffffffffffffffffffffffffffffffff1916817bffffffffffffffffffffffffffffffffffffffffffffffffffffffff191614611ac857846040517f57f447ce000000000000000000000000000000000000000000000000000000008152600401611abf9190612963565b60405180910390fd5b505b505050505050565b60008473ffffffffffffffffffffffffffffffffffffffff163b1115611c7e578373ffffffffffffffffffffffffffffffffffffffff1663bc197c8187878686866040518663ffffffff1660e01b8152600401611b33959493929190612f3f565b6020604051808303816000875af1925050508015611b6f57506040513d601f19601f82011682018060405250810190611b6c9190612f12565b60015b611bf3573d8060008114611b9f576040519150601f19603f3d011682016040523d82523d6000602084013e611ba4565b606091505b506000815103611beb57846040517f57f447ce000000000000000000000000000000000000000000000000000000008152600401611be29190612963565b60405180910390fd5b805181602001fd5b63bc197c8160e01b7bffffffffffffffffffffffffffffffffffffffffffffffffffffffff1916817bffffffffffffffffffffffffffffffffffffffffffffffffffffffff191614611c7c57846040517f57f447ce000000000000000000000000000000000000000000000000000000008152600401611c739190612963565b60405180910390fd5b505b505050505050565b611c8e6117c0565b611c9a84848484611ca0565b50505050565b8051825114611cea57815181516040517f5b059991000000000000000000000000000000000000000000000000000000008152600401611ce1929190612b74565b60405180910390fd5b6000611cf4611122565b905060005b8351811015611f09576000611d17828661107590919063ffffffff16565b90506000611d2e838661107590919063ffffffff16565b9050600073ffffffffffffffffffffffffffffffffffffffff168873ffffffffffffffffffffffffffffffffffffffff1614611e5b57600080600084815260200190815260200160002060008a73ffffffffffffffffffffffffffffffffffffffff1673ffffffffffffffffffffffffffffffffffffffff16815260200190815260200160002054905081811015611e0357888183856040517f03dee4c5000000000000000000000000000000000000000000000000000000008152600401611dfa9493929190612fa7565b60405180910390fd5b81810360008085815260200190815260200160002060008b73ffffffffffffffffffffffffffffffffffffffff1673ffffffffffffffffffffffffffffffffffffffff16815260200190815260200160002081905550505b600073ffffffffffffffffffffffffffffffffffffffff168773ffffffffffffffffffffffffffffffffffffffff1614611ef6578060008084815260200190815260200160002060008973ffffffffffffffffffffffffffffffffffffffff1673ffffffffffffffffffffffffffffffffffffffff1681526020019081526020016000206000828254611eee9190612fec565b925050819055505b505080611f0290612bfb565b9050611cf9565b506001835103611fc8576000611f2960008561107590919063ffffffff16565b90506000611f4160008561107590919063ffffffff16565b90508573ffffffffffffffffffffffffffffffffffffffff168773ffffffffffffffffffffffffffffffffffffffff168473ffffffffffffffffffffffffffffffffffffffff167fc3d58168c5ae7397731d063d5bbf3d657854427343f4c083240f7aacaa2d0f628585604051611fb9929190612b74565b60405180910390a45050612047565b8373ffffffffffffffffffffffffffffffffffffffff168573ffffffffffffffffffffffffffffffffffffffff168273ffffffffffffffffffffffffffffffffffffffff167f4a39dc06d4c0dbc64b70af90fd698a233a518aa5d07e595d983b8c0526c8f7fb868660405161203e929190613020565b60405180910390a45b5050505050565b6000604051905090565b600080fd5b600080fd5b600073ffffffffffffffffffffffffffffffffffffffff82169050919050565b600061208d82612062565b9050919050565b61209d81612082565b81146120a857600080fd5b50565b6000813590506120ba81612094565b92915050565b6000819050919050565b6120d3816120c0565b81146120de57600080fd5b50565b6000813590506120f0816120ca565b92915050565b6000806040838503121561210d5761210c612058565b5b600061211b858286016120ab565b925050602061212c858286016120e1565b9150509250929050565b61213f816120c0565b82525050565b600060208201905061215a6000830184612136565b92915050565b60007fffffffff0000000000000000000000000000000000000000000000000000000082169050919050565b61219581612160565b81146121a057600080fd5b50565b6000813590506121b28161218c565b92915050565b6000602082840312156121ce576121cd612058565b5b60006121dc848285016121a3565b91505092915050565b60008115159050919050565b6121fa816121e5565b82525050565b600060208201905061221560008301846121f1565b92915050565b60006020828403121561223157612230612058565b5b600061223f848285016120ab565b91505092915050565b60006020828403121561225e5761225d612058565b5b600061226c848285016120e1565b91505092915050565b600081519050919050565b600082825260208201905092915050565b60005b838110156122af578082015181840152602081019050612294565b60008484015250505050565b6000601f19601f8301169050919050565b60006122d782612275565b6122e18185612280565b93506122f1818560208601612291565b6122fa816122bb565b840191505092915050565b6000602082019050818103600083015261231f81846122cc565b905092915050565b600080fd5b7f4e487b7100000000000000000000000000000000000000000000000000000000600052604160045260246000fd5b612364826122bb565b810181811067ffffffffffffffff821117156123835761238261232c565b5b80604052505050565b600061239661204e565b90506123a2828261235b565b919050565b600067ffffffffffffffff8211156123c2576123c161232c565b5b602082029050602081019050919050565b600080fd5b60006123eb6123e6846123a7565b61238c565b9050808382526020820190506020840283018581111561240e5761240d6123d3565b5b835b81811015612437578061242388826120e1565b845260208401935050602081019050612410565b5050509392505050565b600082601f83011261245657612455612327565b5b81356124668482602086016123d8565b91505092915050565b600080fd5b600067ffffffffffffffff82111561248f5761248e61232c565b5b612498826122bb565b9050602081019050919050565b82818337600083830152505050565b60006124c76124c284612474565b61238c565b9050828152602081018484840111156124e3576124e261246f565b5b6124ee8482856124a5565b509392505050565b600082601f83011261250b5761250a612327565b5b813561251b8482602086016124b4565b91505092915050565b6000806000806080858703121561253e5761253d612058565b5b600061254c878288016120ab565b945050602085013567ffffffffffffffff81111561256d5761256c61205d565b5b61257987828801612441565b935050604085013567ffffffffffffffff81111561259a5761259961205d565b5b6125a687828801612441565b925050606085013567ffffffffffffffff8111156125c7576125c661205d565b5b6125d3878288016124f6565b91505092959194509250565b600080600080600060a086880312156125fb576125fa612058565b5b6000612609888289016120ab565b955050602061261a888289016120ab565b945050604086013567ffffffffffffffff81111561263b5761263a61205d565b5b61264788828901612441565b935050606086013567ffffffffffffffff8111156126685761266761205d565b5b61267488828901612441565b925050608086013567ffffffffffffffff8111156126955761269461205d565b5b6126a1888289016124f6565b9150509295509295909350565b600067ffffffffffffffff8211156126c9576126c861232c565b5b602082029050602081019050919050565b60006126ed6126e8846126ae565b61238c565b905080838252602082019050602084028301858111156127105761270f6123d3565b5b835b81811015612739578061272588826120ab565b845260208401935050602081019050612712565b5050509392505050565b600082601f83011261275857612757612327565b5b81356127688482602086016126da565b91505092915050565b6000806040838503121561278857612787612058565b5b600083013567ffffffffffffffff8111156127a6576127a561205d565b5b6127b285828601612743565b925050602083013567ffffffffffffffff8111156127d3576127d261205d565b5b6127df85828601612441565b9150509250929050565b600081519050919050565b600082825260208201905092915050565b6000819050602082019050919050565b61281e816120c0565b82525050565b60006128308383612815565b60208301905092915050565b6000602082019050919050565b6000612854826127e9565b61285e81856127f4565b935061286983612805565b8060005b8381101561289a5781516128818882612824565b975061288c8361283c565b92505060018101905061286d565b5085935050505092915050565b600060208201905081810360008301526128c18184612849565b905092915050565b6000806000606084860312156128e2576128e1612058565b5b60006128f0868287016120ab565b935050602084013567ffffffffffffffff8111156129115761291061205d565b5b61291d86828701612441565b925050604084013567ffffffffffffffff81111561293e5761293d61205d565b5b61294a86828701612441565b9150509250925092565b61295d81612082565b82525050565b60006020820190506129786000830184612954565b92915050565b612987816121e5565b811461299257600080fd5b50565b6000813590506129a48161297e565b92915050565b600080604083850312156129c1576129c0612058565b5b60006129cf858286016120ab565b92505060206129e085828601612995565b9150509250929050565b60008060408385031215612a0157612a00612058565b5b6000612a0f858286016120ab565b9250506020612a20858286016120ab565b9150509250929050565b600080600080600060a08688031215612a4657612a45612058565b5b6000612a54888289016120ab565b9550506020612a65888289016120ab565b9450506040612a76888289016120e1565b9350506060612a87888289016120e1565b925050608086013567ffffffffffffffff811115612aa857612aa761205d565b5b612ab4888289016124f6565b9150509295509295909350565b600080600060608486031215612ada57612ad9612058565b5b6000612ae8868287016120ab565b9350506020612af9868287016120e1565b9250506040612b0a868287016120e1565b9150509250925092565b7f4e487b7100000000000000000000000000000000000000000000000000000000600052602260045260246000fd5b60006002820490506001821680612b5b57607f821691505b602082108103612b6e57612b6d612b14565b5b50919050565b6000604082019050612b896000830185612136565b612b966020830184612136565b9392505050565b7f4e487b7100000000000000000000000000000000000000000000000000000000600052603260045260246000fd5b7f4e487b7100000000000000000000000000000000000000000000000000000000600052601160045260246000fd5b6000612c06826120c0565b91507fffffffffffffffffffffffffffffffffffffffffffffffffffffffffffffffff8203612c3857612c37612bcc565b5b600182019050919050565b6000604082019050612c586000830185612954565b612c656020830184612954565b9392505050565b7f4561636820616464726573732063616e206f6e6c7920627579206f6e6520666560008201527f65642074616b656f7665722072696768742e0000000000000000000000000000602082015250565b6000612cc8603283612280565b9150612cd382612c6c565b604082019050919050565b60006020820190508181036000830152612cf781612cbb565b9050919050565b7f416c6c2074686520666565642074616b656f766572207269676874732061726560008201527f20676f6e65210000000000000000000000000000000000000000000000000000602082015250565b6000612d5a602683612280565b9150612d6582612cfe565b604082019050919050565b60006020820190508181036000830152612d8981612d4d565b9050919050565b7f496e636f7272656374207061796d656e7420616d6f756e740000000000000000600082015250565b6000612dc6601883612280565b9150612dd182612d90565b602082019050919050565b60006020820190508181036000830152612df581612db9565b9050919050565b6000612e07826120c0565b915060008203612e1a57612e19612bcc565b5b600182039050919050565b6000604082019050612e3a6000830185612136565b612e476020830184612954565b9392505050565b600081519050919050565b600082825260208201905092915050565b6000612e7582612e4e565b612e7f8185612e59565b9350612e8f818560208601612291565b612e98816122bb565b840191505092915050565b600060a082019050612eb86000830188612954565b612ec56020830187612954565b612ed26040830186612136565b612edf6060830185612136565b8181036080830152612ef18184612e6a565b90509695505050505050565b600081519050612f0c8161218c565b92915050565b600060208284031215612f2857612f27612058565b5b6000612f3684828501612efd565b91505092915050565b600060a082019050612f546000830188612954565b612f616020830187612954565b8181036040830152612f738186612849565b90508181036060830152612f878185612849565b90508181036080830152612f9b8184612e6a565b90509695505050505050565b6000608082019050612fbc6000830187612954565b612fc96020830186612136565b612fd66040830185612136565b612fe36060830184612136565b95945050505050565b6000612ff7826120c0565b9150613002836120c0565b925082820190508082111561301a57613019612bcc565b5b92915050565b6000604082019050818103600083015261303a8185612849565b9050818103602083015261304e8184612849565b9050939250505056fea2646970667358221220d2004ae6f97cfd8db164b9f01b90fba69381ad804bcded5c7aa4469eed60072764736f6c63430008140033697066733a2f2f516d533745454c4e6731415646703776687777377369734c385468735056664a57685764444858616b4d4b794763",
  "linkReferences": {},
  "deployedLinkReferences": {}
}